{
	"contracts/TrafficLight.sol": {
		"TrafficLight": {
			"abi": [
				{
					"inputs": [],
					"name": "changeToNext",
					"outputs": [],
					"stateMutability": "nonpayable",
					"type": "function"
				},
				{
					"inputs": [],
					"name": "currentLight",
					"outputs": [
						{
							"internalType": "enum TrafficLight.Light",
							"name": "",
							"type": "uint8"
						}
					],
					"stateMutability": "view",
					"type": "function"
				},
				{
					"inputs": [],
					"name": "getCurrentStatus",
					"outputs": [
						{
							"internalType": "enum TrafficLight.Light",
							"name": "",
							"type": "uint8"
						}
					],
					"stateMutability": "view",
					"type": "function"
				}
			],
			"devdoc": {
				"kind": "dev",
				"methods": {},
				"version": 1
			},
			"evm": {
				"assembly": "    /* \"contracts/TrafficLight.sol\":58:396  contract TrafficLight {... */\n  mstore(0x40, 0x80)\n    /* \"contracts/TrafficLight.sol\":181:190  Light.Red */\n  0x00\n    /* \"contracts/TrafficLight.sol\":153:190  Light public currentLight = Light.Red */\n  0x00\n  exp(0x0100, 0x00)\n  dup2\n  sload\n  dup2\n  0xff\n  mul\n  not\n  and\n  swap1\n  dup4\n  0x02\n  dup2\n  gt\n  iszero\n  tag_1\n  jumpi\n  tag_2\n  tag_3\n  jump\t// in\ntag_2:\ntag_1:\n  mul\n  or\n  swap1\n  sstore\n  pop\n    /* \"contracts/TrafficLight.sol\":58:396  contract TrafficLight {... */\n  callvalue\n  dup1\n  iszero\n  tag_4\n  jumpi\n  revert(0x00, 0x00)\ntag_4:\n  pop\n  jump(tag_5)\n    /* \"#utility.yul\":7:187   */\ntag_3:\n    /* \"#utility.yul\":55:132   */\n  0x4e487b7100000000000000000000000000000000000000000000000000000000\n    /* \"#utility.yul\":52:53   */\n  0x00\n    /* \"#utility.yul\":45:133   */\n  mstore\n    /* \"#utility.yul\":152:156   */\n  0x21\n    /* \"#utility.yul\":149:150   */\n  0x04\n    /* \"#utility.yul\":142:157   */\n  mstore\n    /* \"#utility.yul\":176:180   */\n  0x24\n    /* \"#utility.yul\":173:174   */\n  0x00\n    /* \"#utility.yul\":166:181   */\n  revert\n    /* \"contracts/TrafficLight.sol\":58:396  contract TrafficLight {... */\ntag_5:\n  dataSize(sub_0)\n  dup1\n  dataOffset(sub_0)\n  0x00\n  codecopy\n  0x00\n  return\nstop\n\nsub_0: assembly {\n        /* \"contracts/TrafficLight.sol\":58:396  contract TrafficLight {... */\n      mstore(0x40, 0x80)\n      callvalue\n      dup1\n      iszero\n      tag_1\n      jumpi\n      revert(0x00, 0x00)\n    tag_1:\n      pop\n      jumpi(tag_2, lt(calldatasize, 0x04))\n      shr(0xe0, calldataload(0x00))\n      dup1\n      0x284e3ebd\n      eq\n      tag_3\n      jumpi\n      dup1\n      0x38d6d62c\n      eq\n      tag_4\n      jumpi\n      dup1\n      0xa3dd2619\n      eq\n      tag_5\n      jumpi\n    tag_2:\n      revert(0x00, 0x00)\n        /* \"contracts/TrafficLight.sol\":153:190  Light public currentLight = Light.Red */\n    tag_3:\n      tag_6\n      tag_7\n      jump\t// in\n    tag_6:\n      mload(0x40)\n      tag_8\n      swap2\n      swap1\n      tag_9\n      jump\t// in\n    tag_8:\n      mload(0x40)\n      dup1\n      swap2\n      sub\n      swap1\n      return\n        /* \"contracts/TrafficLight.sol\":197:295  function changeToNext() public {... */\n    tag_4:\n      tag_10\n      tag_11\n      jump\t// in\n    tag_10:\n      stop\n        /* \"contracts/TrafficLight.sol\":301:394  function getCurrentStatus() public view returns (Light) {... */\n    tag_5:\n      tag_12\n      tag_13\n      jump\t// in\n    tag_12:\n      mload(0x40)\n      tag_14\n      swap2\n      swap1\n      tag_9\n      jump\t// in\n    tag_14:\n      mload(0x40)\n      dup1\n      swap2\n      sub\n      swap1\n      return\n        /* \"contracts/TrafficLight.sol\":153:190  Light public currentLight = Light.Red */\n    tag_7:\n      0x00\n      0x00\n      swap1\n      sload\n      swap1\n      0x0100\n      exp\n      swap1\n      div\n      0xff\n      and\n      dup2\n      jump\t// out\n        /* \"contracts/TrafficLight.sol\":197:295  function changeToNext() public {... */\n    tag_11:\n        /* \"contracts/TrafficLight.sol\":286:287  3 */\n      0x03\n        /* \"contracts/TrafficLight.sol\":281:282  1 */\n      0x01\n        /* \"contracts/TrafficLight.sol\":265:277  currentLight */\n      0x00\n      0x00\n      swap1\n      sload\n      swap1\n      0x0100\n      exp\n      swap1\n      div\n      0xff\n      and\n        /* \"contracts/TrafficLight.sol\":260:278  uint(currentLight) */\n      0x02\n      dup2\n      gt\n      iszero\n      tag_16\n      jumpi\n      tag_17\n      tag_18\n      jump\t// in\n    tag_17:\n    tag_16:\n        /* \"contracts/TrafficLight.sol\":260:282  uint(currentLight) + 1 */\n      tag_19\n      swap2\n      swap1\n      tag_20\n      jump\t// in\n    tag_19:\n        /* \"contracts/TrafficLight.sol\":259:287  (uint(currentLight) + 1) % 3 */\n      tag_21\n      swap2\n      swap1\n      tag_22\n      jump\t// in\n    tag_21:\n        /* \"contracts/TrafficLight.sol\":253:288  Light((uint(currentLight) + 1) % 3) */\n      0x02\n      dup2\n      gt\n      iszero\n      tag_23\n      jumpi\n      tag_24\n      tag_18\n      jump\t// in\n    tag_24:\n    tag_23:\n        /* \"contracts/TrafficLight.sol\":238:250  currentLight */\n      0x00\n      0x00\n        /* \"contracts/TrafficLight.sol\":238:288  currentLight = Light((uint(currentLight) + 1) % 3) */\n      0x0100\n      exp\n      dup2\n      sload\n      dup2\n      0xff\n      mul\n      not\n      and\n      swap1\n      dup4\n      0x02\n      dup2\n      gt\n      iszero\n      tag_25\n      jumpi\n      tag_26\n      tag_18\n      jump\t// in\n    tag_26:\n    tag_25:\n      mul\n      or\n      swap1\n      sstore\n      pop\n        /* \"contracts/TrafficLight.sol\":197:295  function changeToNext() public {... */\n      jump\t// out\n        /* \"contracts/TrafficLight.sol\":301:394  function getCurrentStatus() public view returns (Light) {... */\n    tag_13:\n        /* \"contracts/TrafficLight.sol\":350:355  Light */\n      0x00\n        /* \"contracts/TrafficLight.sol\":375:387  currentLight */\n      0x00\n      0x00\n      swap1\n      sload\n      swap1\n      0x0100\n      exp\n      swap1\n      div\n      0xff\n      and\n        /* \"contracts/TrafficLight.sol\":367:387  return  currentLight */\n      swap1\n      pop\n        /* \"contracts/TrafficLight.sol\":301:394  function getCurrentStatus() public view returns (Light) {... */\n      swap1\n      jump\t// out\n        /* \"#utility.yul\":7:187   */\n    tag_18:\n        /* \"#utility.yul\":55:132   */\n      0x4e487b7100000000000000000000000000000000000000000000000000000000\n        /* \"#utility.yul\":52:53   */\n      0x00\n        /* \"#utility.yul\":45:133   */\n      mstore\n        /* \"#utility.yul\":152:156   */\n      0x21\n        /* \"#utility.yul\":149:150   */\n      0x04\n        /* \"#utility.yul\":142:157   */\n      mstore\n        /* \"#utility.yul\":176:180   */\n      0x24\n        /* \"#utility.yul\":173:174   */\n      0x00\n        /* \"#utility.yul\":166:181   */\n      revert\n        /* \"#utility.yul\":193:305   */\n    tag_28:\n        /* \"#utility.yul\":273:274   */\n      0x03\n        /* \"#utility.yul\":266:271   */\n      dup2\n        /* \"#utility.yul\":263:275   */\n      lt\n        /* \"#utility.yul\":253:299   */\n      tag_38\n      jumpi\n        /* \"#utility.yul\":279:297   */\n      tag_39\n      tag_18\n      jump\t// in\n    tag_39:\n        /* \"#utility.yul\":253:299   */\n    tag_38:\n        /* \"#utility.yul\":193:305   */\n      pop\n      jump\t// out\n        /* \"#utility.yul\":311:436   */\n    tag_29:\n        /* \"#utility.yul\":355:362   */\n      0x00\n        /* \"#utility.yul\":384:389   */\n      dup2\n        /* \"#utility.yul\":373:389   */\n      swap1\n      pop\n        /* \"#utility.yul\":390:430   */\n      tag_41\n        /* \"#utility.yul\":424:429   */\n      dup3\n        /* \"#utility.yul\":390:430   */\n      tag_28\n      jump\t// in\n    tag_41:\n        /* \"#utility.yul\":311:436   */\n      swap2\n      swap1\n      pop\n      jump\t// out\n        /* \"#utility.yul\":442:567   */\n    tag_30:\n        /* \"#utility.yul\":497:506   */\n      0x00\n        /* \"#utility.yul\":530:561   */\n      tag_43\n        /* \"#utility.yul\":555:560   */\n      dup3\n        /* \"#utility.yul\":530:561   */\n      tag_29\n      jump\t// in\n    tag_43:\n        /* \"#utility.yul\":517:561   */\n      swap1\n      pop\n        /* \"#utility.yul\":442:567   */\n      swap2\n      swap1\n      pop\n      jump\t// out\n        /* \"#utility.yul\":573:714   */\n    tag_31:\n        /* \"#utility.yul\":665:707   */\n      tag_45\n        /* \"#utility.yul\":701:706   */\n      dup2\n        /* \"#utility.yul\":665:707   */\n      tag_30\n      jump\t// in\n    tag_45:\n        /* \"#utility.yul\":660:663   */\n      dup3\n        /* \"#utility.yul\":653:708   */\n      mstore\n        /* \"#utility.yul\":573:714   */\n      pop\n      pop\n      jump\t// out\n        /* \"#utility.yul\":720:952   */\n    tag_9:\n        /* \"#utility.yul\":818:822   */\n      0x00\n        /* \"#utility.yul\":856:858   */\n      0x20\n        /* \"#utility.yul\":845:854   */\n      dup3\n        /* \"#utility.yul\":841:859   */\n      add\n        /* \"#utility.yul\":833:859   */\n      swap1\n      pop\n        /* \"#utility.yul\":869:945   */\n      tag_47\n        /* \"#utility.yul\":942:943   */\n      0x00\n        /* \"#utility.yul\":931:940   */\n      dup4\n        /* \"#utility.yul\":927:944   */\n      add\n        /* \"#utility.yul\":918:924   */\n      dup5\n        /* \"#utility.yul\":869:945   */\n      tag_31\n      jump\t// in\n    tag_47:\n        /* \"#utility.yul\":720:952   */\n      swap3\n      swap2\n      pop\n      pop\n      jump\t// out\n        /* \"#utility.yul\":958:1035   */\n    tag_32:\n        /* \"#utility.yul\":995:1002   */\n      0x00\n        /* \"#utility.yul\":1024:1029   */\n      dup2\n        /* \"#utility.yul\":1013:1029   */\n      swap1\n      pop\n        /* \"#utility.yul\":958:1035   */\n      swap2\n      swap1\n      pop\n      jump\t// out\n        /* \"#utility.yul\":1041:1221   */\n    tag_33:\n        /* \"#utility.yul\":1089:1166   */\n      0x4e487b7100000000000000000000000000000000000000000000000000000000\n        /* \"#utility.yul\":1086:1087   */\n      0x00\n        /* \"#utility.yul\":1079:1167   */\n      mstore\n        /* \"#utility.yul\":1186:1190   */\n      0x11\n        /* \"#utility.yul\":1183:1184   */\n      0x04\n        /* \"#utility.yul\":1176:1191   */\n      mstore\n        /* \"#utility.yul\":1210:1214   */\n      0x24\n        /* \"#utility.yul\":1207:1208   */\n      0x00\n        /* \"#utility.yul\":1200:1215   */\n      revert\n        /* \"#utility.yul\":1227:1418   */\n    tag_20:\n        /* \"#utility.yul\":1267:1270   */\n      0x00\n        /* \"#utility.yul\":1286:1306   */\n      tag_51\n        /* \"#utility.yul\":1304:1305   */\n      dup3\n        /* \"#utility.yul\":1286:1306   */\n      tag_32\n      jump\t// in\n    tag_51:\n        /* \"#utility.yul\":1281:1306   */\n      swap2\n      pop\n        /* \"#utility.yul\":1320:1340   */\n      tag_52\n        /* \"#utility.yul\":1338:1339   */\n      dup4\n        /* \"#utility.yul\":1320:1340   */\n      tag_32\n      jump\t// in\n    tag_52:\n        /* \"#utility.yul\":1315:1340   */\n      swap3\n      pop\n        /* \"#utility.yul\":1363:1364   */\n      dup3\n        /* \"#utility.yul\":1360:1361   */\n      dup3\n        /* \"#utility.yul\":1356:1365   */\n      add\n        /* \"#utility.yul\":1349:1365   */\n      swap1\n      pop\n        /* \"#utility.yul\":1384:1387   */\n      dup1\n        /* \"#utility.yul\":1381:1382   */\n      dup3\n        /* \"#utility.yul\":1378:1388   */\n      gt\n        /* \"#utility.yul\":1375:1411   */\n      iszero\n      tag_53\n      jumpi\n        /* \"#utility.yul\":1391:1409   */\n      tag_54\n      tag_33\n      jump\t// in\n    tag_54:\n        /* \"#utility.yul\":1375:1411   */\n    tag_53:\n        /* \"#utility.yul\":1227:1418   */\n      swap3\n      swap2\n      pop\n      pop\n      jump\t// out\n        /* \"#utility.yul\":1424:1604   */\n    tag_34:\n        /* \"#utility.yul\":1472:1549   */\n      0x4e487b7100000000000000000000000000000000000000000000000000000000\n        /* \"#utility.yul\":1469:1470   */\n      0x00\n        /* \"#utility.yul\":1462:1550   */\n      mstore\n        /* \"#utility.yul\":1569:1573   */\n      0x12\n        /* \"#utility.yul\":1566:1567   */\n      0x04\n        /* \"#utility.yul\":1559:1574   */\n      mstore\n        /* \"#utility.yul\":1593:1597   */\n      0x24\n        /* \"#utility.yul\":1590:1591   */\n      0x00\n        /* \"#utility.yul\":1583:1598   */\n      revert\n        /* \"#utility.yul\":1610:1786   */\n    tag_22:\n        /* \"#utility.yul\":1642:1643   */\n      0x00\n        /* \"#utility.yul\":1659:1679   */\n      tag_57\n        /* \"#utility.yul\":1677:1678   */\n      dup3\n        /* \"#utility.yul\":1659:1679   */\n      tag_32\n      jump\t// in\n    tag_57:\n        /* \"#utility.yul\":1654:1679   */\n      swap2\n      pop\n        /* \"#utility.yul\":1693:1713   */\n      tag_58\n        /* \"#utility.yul\":1711:1712   */\n      dup4\n        /* \"#utility.yul\":1693:1713   */\n      tag_32\n      jump\t// in\n    tag_58:\n        /* \"#utility.yul\":1688:1713   */\n      swap3\n      pop\n        /* \"#utility.yul\":1732:1733   */\n      dup3\n        /* \"#utility.yul\":1722:1757   */\n      tag_59\n      jumpi\n        /* \"#utility.yul\":1737:1755   */\n      tag_60\n      tag_34\n      jump\t// in\n    tag_60:\n        /* \"#utility.yul\":1722:1757   */\n    tag_59:\n        /* \"#utility.yul\":1778:1779   */\n      dup3\n        /* \"#utility.yul\":1775:1776   */\n      dup3\n        /* \"#utility.yul\":1771:1780   */\n      mod\n        /* \"#utility.yul\":1766:1780   */\n      swap1\n      pop\n        /* \"#utility.yul\":1610:1786   */\n      swap3\n      swap2\n      pop\n      pop\n      jump\t// out\n\n    auxdata: 0xa264697066735822122099105ff42e006249baa92e922e7b5f0b616a2dae4557ea69ae6f0b0760912ddc64736f6c634300081f0033\n}\n",
				"bytecode": {
					"linkReferences": {},
					"object": "60806040525f5f5f6101000a81548160ff0219169083600281111560245760236038565b5b02179055503480156033575f5ffd5b506065565b7f4e487b71000000000000000000000000000000000000000000000000000000005f52602160045260245ffd5b6102a9806100725f395ff3fe608060405234801561000f575f5ffd5b506004361061003f575f3560e01c8063284e3ebd1461004357806338d6d62c14610061578063a3dd26191461006b575b5f5ffd5b61004b610089565b6040516100589190610194565b60405180910390f35b61006961009a565b005b61007361010d565b6040516100809190610194565b60405180910390f35b5f5f9054906101000a900460ff1681565b600360015f5f9054906101000a900460ff1660028111156100be576100bd610121565b5b6100c891906101e3565b6100d29190610243565b60028111156100e4576100e3610121565b5b5f5f6101000a81548160ff0219169083600281111561010657610105610121565b5b0217905550565b5f5f5f9054906101000a900460ff16905090565b7f4e487b71000000000000000000000000000000000000000000000000000000005f52602160045260245ffd5b6003811061015f5761015e610121565b5b50565b5f81905061016f8261014e565b919050565b5f61017e82610162565b9050919050565b61018e81610174565b82525050565b5f6020820190506101a75f830184610185565b92915050565b5f819050919050565b7f4e487b71000000000000000000000000000000000000000000000000000000005f52601160045260245ffd5b5f6101ed826101ad565b91506101f8836101ad565b92508282019050808211156102105761020f6101b6565b5b92915050565b7f4e487b71000000000000000000000000000000000000000000000000000000005f52601260045260245ffd5b5f61024d826101ad565b9150610258836101ad565b92508261026857610267610216565b5b82820690509291505056fea264697066735822122099105ff42e006249baa92e922e7b5f0b616a2dae4557ea69ae6f0b0760912ddc64736f6c634300081f0033",
					"opcodes": "PUSH1 0x80 PUSH1 0x40 MSTORE PUSH0 PUSH0 PUSH0 PUSH2 0x100 EXP DUP2 SLOAD DUP2 PUSH1 0xFF MUL NOT AND SWAP1 DUP4 PUSH1 0x2 DUP2 GT ISZERO PUSH1 0x24 JUMPI PUSH1 0x23 PUSH1 0x38 JUMP JUMPDEST JUMPDEST MUL OR SWAP1 SSTORE POP CALLVALUE DUP1 ISZERO PUSH1 0x33 JUMPI PUSH0 PUSH0 REVERT JUMPDEST POP PUSH1 0x65 JUMP JUMPDEST PUSH32 0x4E487B7100000000000000000000000000000000000000000000000000000000 PUSH0 MSTORE PUSH1 0x21 PUSH1 0x4 MSTORE PUSH1 0x24 PUSH0 REVERT JUMPDEST PUSH2 0x2A9 DUP1 PUSH2 0x72 PUSH0 CODECOPY PUSH0 RETURN INVALID PUSH1 0x80 PUSH1 0x40 MSTORE CALLVALUE DUP1 ISZERO PUSH2 0xF JUMPI PUSH0 PUSH0 REVERT JUMPDEST POP PUSH1 0x4 CALLDATASIZE LT PUSH2 0x3F JUMPI PUSH0 CALLDATALOAD PUSH1 0xE0 SHR DUP1 PUSH4 0x284E3EBD EQ PUSH2 0x43 JUMPI DUP1 PUSH4 0x38D6D62C EQ PUSH2 0x61 JUMPI DUP1 PUSH4 0xA3DD2619 EQ PUSH2 0x6B JUMPI JUMPDEST PUSH0 PUSH0 REVERT JUMPDEST PUSH2 0x4B PUSH2 0x89 JUMP JUMPDEST PUSH1 0x40 MLOAD PUSH2 0x58 SWAP2 SWAP1 PUSH2 0x194 JUMP JUMPDEST PUSH1 0x40 MLOAD DUP1 SWAP2 SUB SWAP1 RETURN JUMPDEST PUSH2 0x69 PUSH2 0x9A JUMP JUMPDEST STOP JUMPDEST PUSH2 0x73 PUSH2 0x10D JUMP JUMPDEST PUSH1 0x40 MLOAD PUSH2 0x80 SWAP2 SWAP1 PUSH2 0x194 JUMP JUMPDEST PUSH1 0x40 MLOAD DUP1 SWAP2 SUB SWAP1 RETURN JUMPDEST PUSH0 PUSH0 SWAP1 SLOAD SWAP1 PUSH2 0x100 EXP SWAP1 DIV PUSH1 0xFF AND DUP2 JUMP JUMPDEST PUSH1 0x3 PUSH1 0x1 PUSH0 PUSH0 SWAP1 SLOAD SWAP1 PUSH2 0x100 EXP SWAP1 DIV PUSH1 0xFF AND PUSH1 0x2 DUP2 GT ISZERO PUSH2 0xBE JUMPI PUSH2 0xBD PUSH2 0x121 JUMP JUMPDEST JUMPDEST PUSH2 0xC8 SWAP2 SWAP1 PUSH2 0x1E3 JUMP JUMPDEST PUSH2 0xD2 SWAP2 SWAP1 PUSH2 0x243 JUMP JUMPDEST PUSH1 0x2 DUP2 GT ISZERO PUSH2 0xE4 JUMPI PUSH2 0xE3 PUSH2 0x121 JUMP JUMPDEST JUMPDEST PUSH0 PUSH0 PUSH2 0x100 EXP DUP2 SLOAD DUP2 PUSH1 0xFF MUL NOT AND SWAP1 DUP4 PUSH1 0x2 DUP2 GT ISZERO PUSH2 0x106 JUMPI PUSH2 0x105 PUSH2 0x121 JUMP JUMPDEST JUMPDEST MUL OR SWAP1 SSTORE POP JUMP JUMPDEST PUSH0 PUSH0 PUSH0 SWAP1 SLOAD SWAP1 PUSH2 0x100 EXP SWAP1 DIV PUSH1 0xFF AND SWAP1 POP SWAP1 JUMP JUMPDEST PUSH32 0x4E487B7100000000000000000000000000000000000000000000000000000000 PUSH0 MSTORE PUSH1 0x21 PUSH1 0x4 MSTORE PUSH1 0x24 PUSH0 REVERT JUMPDEST PUSH1 0x3 DUP2 LT PUSH2 0x15F JUMPI PUSH2 0x15E PUSH2 0x121 JUMP JUMPDEST JUMPDEST POP JUMP JUMPDEST PUSH0 DUP2 SWAP1 POP PUSH2 0x16F DUP3 PUSH2 0x14E JUMP JUMPDEST SWAP2 SWAP1 POP JUMP JUMPDEST PUSH0 PUSH2 0x17E DUP3 PUSH2 0x162 JUMP JUMPDEST SWAP1 POP SWAP2 SWAP1 POP JUMP JUMPDEST PUSH2 0x18E DUP2 PUSH2 0x174 JUMP JUMPDEST DUP3 MSTORE POP POP JUMP JUMPDEST PUSH0 PUSH1 0x20 DUP3 ADD SWAP1 POP PUSH2 0x1A7 PUSH0 DUP4 ADD DUP5 PUSH2 0x185 JUMP JUMPDEST SWAP3 SWAP2 POP POP JUMP JUMPDEST PUSH0 DUP2 SWAP1 POP SWAP2 SWAP1 POP JUMP JUMPDEST PUSH32 0x4E487B7100000000000000000000000000000000000000000000000000000000 PUSH0 MSTORE PUSH1 0x11 PUSH1 0x4 MSTORE PUSH1 0x24 PUSH0 REVERT JUMPDEST PUSH0 PUSH2 0x1ED DUP3 PUSH2 0x1AD JUMP JUMPDEST SWAP2 POP PUSH2 0x1F8 DUP4 PUSH2 0x1AD JUMP JUMPDEST SWAP3 POP DUP3 DUP3 ADD SWAP1 POP DUP1 DUP3 GT ISZERO PUSH2 0x210 JUMPI PUSH2 0x20F PUSH2 0x1B6 JUMP JUMPDEST JUMPDEST SWAP3 SWAP2 POP POP JUMP JUMPDEST PUSH32 0x4E487B7100000000000000000000000000000000000000000000000000000000 PUSH0 MSTORE PUSH1 0x12 PUSH1 0x4 MSTORE PUSH1 0x24 PUSH0 REVERT JUMPDEST PUSH0 PUSH2 0x24D DUP3 PUSH2 0x1AD JUMP JUMPDEST SWAP2 POP PUSH2 0x258 DUP4 PUSH2 0x1AD JUMP JUMPDEST SWAP3 POP DUP3 PUSH2 0x268 JUMPI PUSH2 0x267 PUSH2 0x216 JUMP JUMPDEST JUMPDEST DUP3 DUP3 MOD SWAP1 POP SWAP3 SWAP2 POP POP JUMP INVALID LOG2 PUSH5 0x6970667358 0x22 SLT KECCAK256 SWAP10 LT PUSH0 DELEGATECALL 0x2E STOP PUSH3 0x49BAA9 0x2E SWAP3 0x2E PUSH28 0x5F0B616A2DAE4557EA69AE6F0B0760912DDC64736F6C634300081F00 CALLER "
				},
				"gasEstimates": {
					"creation": {
						"codeDepositCost": "136200",
						"executionCost": "24477",
						"totalCost": "160677"
					},
					"external": {
						"changeToNext()": "infinite",
						"currentLight()": "2531",
						"getCurrentStatus()": "2582"
					}
				},
				"methodIdentifiers": {
					"changeToNext()": "38d6d62c",
					"currentLight()": "284e3ebd",
					"getCurrentStatus()": "a3dd2619"
				}
			},
			"storageLayout": {
				"storage": [
					{
						"astId": 10,
						"contract": "contracts/TrafficLight.sol:TrafficLight",
						"label": "currentLight",
						"offset": 0,
						"slot": "0",
						"type": "t_enum(Light)5"
					}
				],
				"types": {
					"t_enum(Light)5": {
						"encoding": "inplace",
						"label": "enum TrafficLight.Light",
						"numberOfBytes": "1"
					}
				}
			},
			"userdoc": {
				"kind": "user",
				"methods": {},
				"version": 1
			}
		}
	}
}